:1000000000C100001AC1000018C1000016C10000A4
:1000100014C1000012C1000010C100000EC1000098
:100020000CC100000AC100000C94CD0C0C94920C81
:1000300004C1000002C1000000C10000FEC00000B9
:10004000FCC0000079C40000F8C00000F6C0000049
:10005000F4C00000F2C00000F0C00000EEC00000DC
:10006000ECC00000EAC00000E8C00000E6C00000EC
:10007000E4C00000E2C00000E0C00000DEC00000FC
:10008000BEC30000DAC00000D8C00000D6C0000027
:10009000D4C00000D2C00000D0C00000CEC000001C
:1000A000CCC00000CAC00000C8C00000120110018E
:1000B00002000008EB034B2001000102DC010902F1
:1000C0003E00020100C032090400000102020100EA
:1000D000052400100104240206052406000107057A
:1000E00082030800FF09040100020A00000007055E
:1000F000040210000507058302100005040309042B
:1001000018034400650061006E0020004300610098
:100110006D0065007200610000002E034C00550068
:100120004600410020005500530042002D005200BF
:1001300053003200330032002000410064006100AF
:10014000700074006500720000000D0A00756E7288
:1001500065636F676E697A656420636F6D6D616E4C
:10016000640065657772697465003A00656572655B
:100170006164007265706F727473007265706F7283
:10018000740073616D706C65730073616D706C6584
:100190000073746F700073746172740072657365BC
:1001A00074002C20002C200077616974696E672030
:1001B000666F72206669727374207469636B007372
:1001C000657474696E6720726567697374657220FF
:1001D000707472005374617274696E6700436F6E5D
:1001E00066696720636F6D706C65746500436F6E40
:1001F0006669677572696E6700636F6E6669673AF4
:10020000200011241FBECFEFDAE0DEBFCDBF11E02A
:10021000A0E0B1E0ECEDF2E202C005900D92AA344C
:10022000B107D9F712E0AAE4B1E001C01D92A637E8
:10023000B107E1F713D00C946C11E2CE2DE088E108
:1002400090E00FB6F894A895809360000FBE2093BD
:100250006000EDD03BD21CD646D349C0EFDF789486
:10026000C6D2B2D375D68ED0FAD0FACFDA01923098
:1002700049F0933061F09130F9F4ECEAF0E022E1DA
:1002800030E01EC0EEEBF0E02EE330E019C081302C
:1002900049F0813018F0823079F408C0ECEFF0E0DA
:1002A000849107C0E0E0F1E0849103C0EAE1F1E06D
:1002B0008491282F30E004C0E0E0F0E020E030E05E
:1002C000ED93FC93C901089580910002089581E0A7
:1002D000809300020895109200020895089584E129
:1002E00091E00C94E50F84E191E00C94BE0F80E066
:1002F00091E010D78AE091E00DD70C94750CCF9364
:10030000DF93EC01FE0144912196442399F08FB7CD
:10031000F8948FBF20910E0130910F018091100150
:10032000909111012817390769F3842F6AE071E071
:10033000FCD6E8CFDF91CF910895E1DF8AE491E028
:10034000DECFCF93DF93EC0105C02196842F6AE0C6
:1003500071E0EBD64881442371F08FB7F8948FBFDA
:1003600020910E0130910F018091100190911101A7
:100370002817390751F7DF91CF910895E2DF8AE41A
:1003800091E0BDCF1F938FB7F8948FBF20910401E8
:1003900030910501809106019091070128173907D6
:1003A00049F084E191E00E94130F97FD03C060E0E3
:1003B00071E0BBD68FB7F89420910E0130910F01F8
:1003C0008FBF2115310559F1809115018F708093F0
:1003D000E9008091E80080FF22C0C9012031310589
:1003E00010F08FE090E0182F18C08FB7F8948FBFEF
:1003F000E0911201F091130180910A0190910B019B
:10040000E80FF91F84E191E060810E94990F11507B
:10041000882329F48AE091E0C7D6112331F784E1DB
:1004200091E00E94820F0E94FF0E1F91089508958F
:10043000CF93DF93EC0148DF882319F08A819B81F9
:100440009DDFDF91CF910895CF93DF93EC013CDFE7
:10045000882311F0CE0171DFDF91CF910895DF93F2
:10046000CF93CDB7DEB7CD57D0400FB6F894DEBFEF
:100470000FBECDBF8FB7F8948FBF809104019091CC
:100480000501892B81F180E091E08ED68D3019F045
:100490008F37D9F413C08FE291E053DF83E391E00B
:1004A00050DF809144019091450146D01092430164
:1004B000E0914401F091450110820AC0809143010E
:1004C000815062E471E0CFD703C062E471E0B4D739
:1004D00086E391E036DF809144019091450131DF60
:1004E0008FE291E02EDFF0DE8823E1F08AE292E0F5
:1004F00058D18823B9F0FE01359689E7DF011D92B6
:100500008A95E9F788E789831A82FC83EB8388E37D
:1005100091E0BE016F5F7F4FD7D781E090E06AE244
:1005200072E010D1C358DF4F0FB6F894DEBF0FBE94
:10053000CDBFCF91DF910895FF920F931F93DF936B
:10054000CF93CDB7DEB7C357D0400FB6F894DEBF18
:100550000FBECDBFBC018E010C5D1F4FC8014FE423
:1005600050E00E942E11FE01ED58FF4F1082C8018D
:1005700066E471E00E942B118C01009709F499C088
:100580006CE971E00E940011892B11F49BD191C09C
:10059000C80166E971E00E940011892B11F48BD12A
:1005A00088C0C80161E971E00E940011892B11F433
:1005B00086D17FC0C8016AE871E00E940011892BD2
:1005C00061F480E090E066E471E00E942B11892BD9
:1005D00009F46FC082E891E06BC0C8016BE771E07D
:1005E0000E940011892B61F480E090E066E471E0E4
:1005F0000E942B11892B09F45CC083E791E058C05D
:10060000C8016CE671E00E940011892B79F580E049
:1006100090E066E471E00E942B11009709F449C054
:100620000E94E3108C0182D7F82EFE0135968FE1EF
:10063000DF011D928A95E9F78EE189831A82FC8396
:10064000EB83C80161E040E08E010F5F1F4F98010E
:1006500081D68AE691E0B80113D78F2D90E061E052
:1006600040E0980177D6C801E3DE23C0C80162E606
:1006700071E00E940011892BC9F480E090E066E4EB
:1006800071E00E942B110097A1F00E94E3108C01F1
:1006900080E090E066E471E00E942B11009749F041
:1006A0000E94E310682FC80139D703C08DE491E0A0
:1006B000CBDECD58DF4F0FB6F894DEBF0FBECDBFF7
:1006C000CF91DF911F910F91FF90089510922F020B
:1006D00010922E02109230021092310210923202C9
:1006E000109233021092360210923502E1E9F0E0E6
:1006F0008081887F836080838081877E886080831B
:1007000084E390E090939900809398001092950074
:1007100010929400C19AE1E7F0E0808182608083CA
:100720000895FC012FB7F894809130029091310226
:10073000A0913202B091330280839183A283B3836C
:100740002FBF0895CF92DF92EF92FF920F931F93E6
:10075000DF93CF9300D000D0CDB7DEB77C016B0123
:10076000CE010196DEDF0027F7FC0095102F89816E
:100770009A81AB81BC81E80EF91E0A1F1B1FF6018E
:10078000E082F182028313830F900F900F900F90FD
:10079000CF91DF911F910F91FF90EF90DF90CF905D
:1007A00008950F931F93DF93CF9300D000D0CDB760
:1007B000DEB78C01CE010196B4DF60E029813A8179
:1007C0004B815C81F80180819181A281B3812817DE
:1007D00039074A075B0708F061E0862F0F900F90FA
:1007E0000F900F90CF91DF911F910F9108958091FD
:1007F0003402882311F0769A0895A89508951F92DF
:100800000F920FB60F9211242F933F934F935F9344
:100810006F937F938F939F93AF93BF93EF93FF93C8
:1008200080912E0290912F02019690932F02809337
:100830002E0280912E0290912F02805C9241B8F09E
:1008400010922F0210922E0280913002909131026C
:10085000A0913202B09133020196A11DB11D809387
:10086000300290933102A0933202B0933302E091B0
:100870003502F0913602309709F00995FF91EF911A
:10088000BF91AF919F918F917F916F915F914F91A8
:100890003F912F910F900FBE0F901F90189581E000
:1008A00080933B02089581E080933B02509347027E
:1008B00040934602089581E0809338020895109293
:1008C0003802089510924C0210924D0210924E027E
:1008D00010924F02109248021092490210924A025E
:1008E00010924B0208951092380284E690E09093A3
:1008F0003F0280933E0210924C0210924D021092E1
:100900004E0210924F0285E090E090935102809346
:100910005002E1E8F0E08081887F836080838081FD
:10092000877E886080838AEF90E09093890080932F
:1009300088001092370208951F920F920FB60F92FF
:1009400011242F933F934F938F939F93AF93BF9314
:1009500041E04093390280913C0290913D02019622
:1009600090933D0280933C0220913C0230913D02E5
:1009700080913E0290913F022817390730F0409352
:100980003A0210923D0210923C02809148029091EE
:100990004902A0914A02B0914B020196A11DB11DDE
:1009A0008093480290934902A0934A02B0934B026D
:1009B000BF91AF919F918F914F913F912F910F9048
:1009C0000FBE0F901F9018958F929F92AF92BF927B
:1009D000CF92DF92EF92FF920F931F93DF93CF930B
:1009E000CDB7DEB7AD970FB6F894DEBF0FBECDBF63
:1009F00080913702823079F1833030F4882371F0AE
:100A0000813009F039C11EC0843009F458C08430E7
:100A100008F45EC0853009F02FC177C080E061E046
:100A200043E023E009E035E0E32E9FE4C92E94E0A3
:100A3000D92E83D1882309F41FC18DEE91E004DD06
:100A400081E018C180913B02882309F415C18DED26
:100A500091E0FADC58C080913802882309F40CC177
:100A60001092390210923A0210923D0210923C020A
:100A700010924102109240021092420210924302E0
:100A8000109244021092450284ED91E0DDDC109258
:100A9000850010928400B19A80916F0082608093EB
:100AA0006F0010923B0281E06FE474E02BD1882349
:100AB00009F4E2C08FEB91E0C7DC84E0DBC08091F9
:100AC0003B02882309F4D8C088EA91E0BDDCD1C09C
:100AD00080913802882389F080913902882309F4B3
:100AE000CBC010923B0283E594E0F3D0882309F455
:100AF000C3C01092390285E0BDC0B19A80916F00E9
:100B00008D7F80936F0082E0B5C080913B02882387
:100B100009F4B2C040914002509141024F5F5F4FD3
:100B200050934102409340028091500290915102B3
:100B30002091460230914702820F931F7C010027CB
:100B4000F7FC0095102F8091420290914302A091F2
:100B50004402B0914502E80EF91E0A1F1B1FE092E5
:100B60004202F092430200934402109345028091A6
:100B70003A02882309F47DC08FB7F89410923A02A4
:100B80008090480290904902A0904A02B0904B0297
:100B90008FBF9A0140E050E0C801B7010E94C81021
:100BA00069017A0180914C0290914D02A0914E0210
:100BB000B0914F028C0D9D1DAE1DBF1D80934C0248
:100BC00090934D02A0934E02B0934F02FE013596D2
:100BD00089E2DF011D928A95E9F788E289831A820A
:100BE000FC83EB83C501B40141E023E05E0108947E
:100BF000A11CB11C85010AD385EA91E0B50140D45E
:100C0000C701B60141E021E001D382EA91E0B501DC
:100C100037D460913E0270913F0288EE93E00E94CB
:100C2000921088E691E0689F9001699F300D789F4F
:100C3000300D112440E050E060914C0270914D0263
:100C400080914E0290914F020E94C810CA01B901D2
:100C500041E022E0DBD2C501EBDB109241021092B1
:100C600040021092420210924302109244021092EB
:100C7000450283E080933702AD960FB6F894DEBF4D
:100C80000FBECDBFCF91DF911F910F91FF90EF90DD
:100C9000DF90CF90BF90AF909F908F900895E0919C
:100CA0005402F0915502309709F009950895982F54
:100CB000F90120915202309153022115310541F082
:100CC0008181508140E0480F511D892FF90109951C
:100CD0000895EF92FF920F931F9390935302809386
:100CE000520280E460E040E050E022E006E512E0DD
:100CF00097E5E92E96E0F92ED9D01F910F91FF903C
:100D0000EF900895EF92FF920F931F9380935602F6
:100D1000709355026093540280E461E046E552E02E
:100D200020E000E010E03FE4E32E36E0F32EBED0FA
:100D30001F910F91FF90EF900895AF92BF92CF92C5
:100D4000DF92EF92FF920F931F93DF93CF93CDB774
:100D5000DEB7C154D0400FB6F894DEBF0FBECDBF92
:100D600010925602B62EB294BB0CA0EEBA22AA2460
:100D7000782F77957727779560E0A62AB72A942F62
:100D8000990F990F990F80E0A82AB92A30E036957B
:100D9000322F222737952795A22AB32A10E0E3E0C5
:100DA000000F111FEA95E1F7A02AB12AFF24AE280F
:100DB000BF28FE0135968DE3DF011D928A95E9F784
:100DC0008CE38983FC83EB831A821D8289EF91E097
:100DD0008E010F5F1F4FB80153D3C50161E040E0A2
:100DE0009801B8D2C80124DBB0925702A0925802F1
:100DF000D0925502C092540280E463E046E552E08E
:100E000020E000E010E07FE4E72E76E0F72E4ED001
:100E1000CF5BDF4F0FB6F894DEBF0FBECDBFCF91D3
:100E2000DF911F910F91FF90EF90DF90CF90BF90D7
:100E3000AF90089584EA8093BC00089584E980937C
:100E4000BC0008958091B900887F08951F93182FE2
:100E5000F5DF10925902E0916202F091630280E0A6
:100E6000612F40E020E030E009951F9108951F9325
:100E7000182FE4DF10925902E0916202F0916302B0
:100E800080E0612F40E020E030E009951F91089557
:100E900083E08093B80010925902089590E0809109
:100EA0005902882309F491E0892F0895BF92CF92C7
:100EB000DF92EF92FF920F931F93CF93DF93D82E81
:100EC000B62EEA01C22EEADF882301F1D0925A023F
:100ED000B0925B02D0935D02C0935C02C0925E024E
:100EE0001093600200935F02F0926302E09262024C
:100EF000A1DFBB2011F484E001C081E0809359029E
:100F000080EE91E064E672E01DDC81E0DF91CF913C
:100F10001F910F91FF90EF90DF90CF90BF900895B9
:100F200084E692E03EDC882391F088DF8091BC006B
:100F30008B7F8093BC0010925902E0916202F09185
:100F4000630280E06FE740E020E030E0099508951B
:100F50000F931F93CF93DF9380915902833009F44D
:100F600044C0843030F4813071F0823009F0CDC05B
:100F70001EC0853009F47FC0853008F469C0863012
:100F800009F0C3C087C08091BC0087FFBDC05ADF95
:100F9000883009F05BC080915A0290E0880F991F59
:100FA0008093BB0084E88093BC0082E016C08091EF
:100FB000BC0087FFA9C046DF883109F047C0E09137
:100FC0005C02F0915D0280818093BB0084E8809395
:100FD000BC0081E08093610283E08093590280EE3F
:100FE00091E064E672E0AEDB90C08091BC0087FFC8
:100FF0008BC028DF883251F59091610280915B02AD
:10100000981768F4E0915C02F0915D02E90FF11D20
:1010100080818093BB009F5F9093610260C00EDF70
:1010200080915E02882319F005DF84E0D6CF10920C
:10103000590220915F0230916002E0916202F091CA
:10104000630281E068E240E00995C9CF10DF5DC02E
:101050008091BC0087FF58C0F5DE883009F052C08F
:1010600080915A02880F81608093BB0084E880934E
:10107000BC0085E0B2CF8091BC0087FF45C0E2DEB6
:10108000803409F03FC084EC8093BC001092610270
:1010900086E0A3CF8091BC0087FF36C0D3DE082F47
:1010A000803511F0883571F5C0915F02D0916002F2
:1010B000909161028091BB00FE01E90FF11D8083D8
:1010C000192F1F5F1093610280915E02181768F458
:1010D000212F30E090E001972817390714F084E8B9
:1010E00001C084EC8093BC007ACFA8DE1092590234
:1010F000E0916202F091630281E0602F412F9E0136
:10110000099503C0A3DE01C00BDFDF91CF911F91D2
:101110000F910895FC018FB7F89411821082138209
:101120001282158214828FBF0895482FDB015FB7AA
:10113000F89414962D913C91159716968D919C914B
:1011400017972817390710F080E02CC01896ED91FA
:10115000FC91199712968D919C911397E80FF91FA6
:10116000408312962D913C91139716968D919C91E8
:10117000179701972817390738F42F5F3F4F1396B9
:101180003C932E93129704C013961C921E921297B2
:1011900014968D919C911597019615969C938E931C
:1011A000149781E05FBF0895DC014FB7F89414965F
:1011B0008D919C911597892B11F4E0E024C02D911D
:1011C0003C9111971896ED91FC911997E20FF31F3E
:1011D000E08116968D919C911797019728173907F2
:1011E00030F42F5F3F4F11963C932E9303C011961E
:1011F0001C921E9214968D919C91159701971596AD
:101200009C938E9314974FBF8E2F08952F923F92E9
:101210004F925F926F927F928F929F92AF92BF9206
:10122000CF92DF92EF92FF920F931F93DF93CF93B2
:10123000CDB7DEB761970FB6F894DEBF0FBECDBF56
:101240003B014C01498B1801188A7B018C0197FFE7
:1012500007C0EE24FF248701E61AF70A080B190BD2
:10126000CE010F96222311F46C0126C06C012C01D3
:10127000421A510816C0C801B7012AE030E040E028
:1012800050E064D7605DF60160836501C801B70175
:101290002AE030E040E050E059D7C901DA017C0192
:1012A0008D0156010894A108B108C414D50419F79A
:1012B0008EE2F60180836501AA24BB24F9894F2EB2
:1012C00055241BC0C801B7012AE030E040E050E0DF
:1012D0003DD7605DF60160830894C108D108C8015C
:1012E000B7012AE030E040E050E030D7C901DA0130
:1012F0007C018D010894A11CB11CA414B50414F345
:10130000E114F10401051105E9F697FE06C08DE22E
:10131000F60180830894C108D108C6010196B10185
:10132000D3D061960FB6F894DEBF0FBECDBFCF917C
:10133000DF911F910F91FF90EF90DF90CF90BF90C2
:10134000AF909F908F907F906F905F904F903F9065
:101350002F9008959F92AF92BF92CF92DF92EF921B
:10136000FF920F931F93DF93CF93CDB7DEB76097B4
:101370000FB6F894DEBF0FBECDBF7C01962E59018B
:10138000188A9C0197FF04C022273327281B390B9A
:10139000CE010F96442311F4FC011AC0FC016C012C
:1013A000C41AD1080CC0C9016AE070E0BBD6805DE8
:1013B0008083F801C9016AE070E0B4D69B018F0117
:1013C00001501040EC15FD0571F78EE28083F801A5
:1013D00000E010E0C92CDD240EC0C9016AE070E015
:1013E000A1D6805D80833197C9016AE070E09AD60A
:1013F0009B010F5F1F4F0C151D057CF32115310557
:1014000061F7F7FE03C08DE280833197CF0101962B
:10141000B5015AD060960FB6F894DEBF0FBECDBFAF
:10142000CF91DF911F910F91FF90EF90DF90CF90C0
:10143000BF90AF909F900895282FDB0111969C914B
:1014400011978C91981770F41296ED91FC91139767
:10145000E90FF11D2083118211968C9111978F5FF6
:1014600011968C930895982FFB018181981738F479
:1014700091830280F381E02DE90FF11D1082089520
:10148000EF92FF921F93CF93DF937C01EB01CBD6BA
:1014900029811881121B811708F4182F8A819B81DA
:1014A000820F911DB701412F50E0C6D68981810F6F
:1014B0008983EA81FB81E80FF11D1082DF91CF91D2
:1014C0001F91FF90EF9008951F93CF93DF93382FD4
:1014D000492FEB01E82FF92FDF010D900020E9F7EC
:1014E0001197AE1BBF0B29811881121BA11708F49D
:1014F0001A2F8A819B81820F911D632F742F412F98
:1015000050E0ACD68981810F8983EA81FB81E80FA5
:10151000F11D1082DF91CF911F910895F999FECFAF
:1015200092BD81BD60BDFA9AF99A0895F999FECFEE
:1015300092BD81BDF89A80B508959C0140917402D6
:10154000509175024617570718F4F90190E042C010
:101550006115710511F0AB01F8CF8091E8008E772D
:101560008093E80040E050E0F0CF8EB3882309F488
:1015700046C0853009F445C08091E80083FD43C032
:101580008091E80082FD35C08091E80080FF22C094
:101590008091F3009091F200782F60E0292F30E0E5
:1015A000262B372B07C081918093F100415050408A
:1015B0002F5F3F4F4115510519F02830310598F341
:1015C00090E02830310509F491E08091E8008E77B1
:1015D0008093E8004115510541F6992331F609C081
:1015E0008EB3882361F0853061F08091E80083FD3F
:1015F0000AC08091E80082FFF3CF80E0089582E086
:10160000089583E0089581E008959C01409174025B
:10161000509175024617570718F4F90190E043C03E
:101620006115710511F0AB01F8CF8091E8008E775C
:101630008093E80040E050E0F0CF8EB3882309F4B7
:1016400047C0853009F446C08091E80083FD44C05E
:101650008091E80082FD36C08091E80080FF23C0C1
:101660008091F3009091F200782F60E0292F30E014
:10167000262B372B08C084918093F100319641507E
:1016800050402F5F3F4F4115510519F0283031056B
:1016900090F390E02830310509F491E08091E80062
:1016A0008E778093E8004115510539F6992329F684
:1016B00009C08EB3882361F0853061F08091E80025
:1016C00083FD0AC08091E80082FFF3CF80E0089597
:1016D00082E0089583E0089581E00895382F282F4F
:1016E0002EC0822F8F708093E900231721F4762F6C
:1016F000942F50E006C07091EC009091ED00509155
:10170000F00091FF1BC08091EB008E7F8093EB0077
:101710008091ED008D7F8093ED008091EB008160E2
:101720008093EB007093EC009093ED005093F000E9
:101730008091EE0087FD02C080E008952F5F273082
:1017400080F23F703093E90081E008950F931F937A
:10175000CF93DF93062FEC0110E02AC098819923E4
:1017600029F16B81E981FA812C81892F8F70873073
:1017700018F5223010F452E001C056E040E028E0B5
:1017800030E003C04F5F220F331F2E173F07D0F307
:101790006295660F660F607C991F9927991F692BC8
:1017A0004295407F452B9ADF882331F01F5F2596B5
:1017B0001017A0F281E001C080E0DF91CF911F916E
:1017C0000F91089580916E0288238CF403C08EB32C
:1017D0008823B1F08091E80082FFF9CF8091E80082
:1017E0008B778093E80008958EB3882349F0809129
:1017F000E80080FFF9CF8091E8008E778093E800C1
:1018000008954091E4005091E50024E68091EC00B9
:1018100080FF23C08091E80080FD1DC08EB3882327
:1018200011F482E00895853011F483E008958091E9
:10183000EB0085FF02C081E008958091E400909163
:10184000E5008417950711F3222311F484E008952D
:101850002150AC01DBCF80E008958091E80082FF49
:10186000DDCFF9CFEF92FF920F931F934ED055D05B
:1018700008ED10E0F80180818F7780838081806897
:10188000808380818F7D808319BC1EBA10926A028A
:1018900010926C0210926B0280EEE82EF12CF70190
:1018A00080818B7F8083F80180818160808380E0EC
:1018B00060E042E013DFE1EEF0E080818E7F808324
:1018C000E2EEF0E0808181608083808188608083A7
:1018D000F70180818E7F8083F80180818061808321
:1018E0001F910F91FF90EF900895E8EDF0E0808157
:1018F0008F7E8083E7EDF0E080818160808384E0EB
:1019000082BF81E080936D02ADCFE8EDF0E0808191
:101910008E7F80831092E20008951092DA00109278
:10192000E10008951F920F920FB60F9211241F939A
:101930002F933F934F935F936F937F938F939F93D7
:10194000AF93BF93EF93FF931091E9008091EC0068
:101950001092E9008091F000877F8093F0007894E6
:10196000E4D01092E9008091F00088608093F0004C
:101970001F701093E900FF91EF91BF91AF919F917C
:101980008F917F916F915F914F913F912F911F9117
:101990000F900FBE0F901F9018951F920F920FB6C9
:1019A0000F9211242F933F934F935F936F937F93E5
:1019B0008F939F93AF93BF93EF93FF938091E10039
:1019C00082FF0AC08091E20082FF06C08091E100A0
:1019D0008B7F8093E10012D28091DA0080FF1DC0DE
:1019E0008091D80080FF19C08091DA008E7F8093AB
:1019F000DA008091D90080FF0CC080E189BD82E1CE
:101A000089BD09B400FEFDCF81E08EBB0E94670155
:101A100004C019BC1EBA0E946B018091E10080FFD6
:101A200017C08091E20080FF13C08091E2008E7F9A
:101A30008093E2008091E20080618093E2008091D7
:101A4000D80080628093D80019BC85E08EBBD6D1C7
:101A50008091E10084FF2EC08091E20084FF2AC0C3
:101A600080E189BD82E189BD09B400FEFDCF80918E
:101A7000D8008F7D8093D8008091E1008F7E809385
:101A8000E1008091E2008F7E8093E2008091E2008D
:101A900081608093E20080916A02882311F084E0E3
:101AA00007C08091E30087FD02C081E001C083E0B0
:101AB0008EBBA4D18091E10083FF26C08091E2001B
:101AC00083FF22C08091E100877F8093E10082E064
:101AD0008EBB10926A028091E1008E7F8093E100BC
:101AE0008091E2008E7F8093E2008091E20080612D
:101AF0008093E20080E060E042E0F0DD8091F00061
:101B000088608093F0007AD1FF91EF91BF91AF91FF
:101B10009F918F917F916F915F914F913F912F9105
:101B20000F900FBE0F901F9018951F93DF93CF93C8
:101B3000CDB7DEB7AC970FB6F894DEBF0FBECDBF02
:101B4000EEE6F2E08091F100819322E0E637F207C1
:101B5000C9F70E946F018091E80083FF37C180912F
:101B60006E0230916F02353009F487C0363040F490
:101B70003130C9F1313070F0333009F027C133C052
:101B8000383009F4F5C0393009F404C1363009F0B1
:101B90001DC195C0803821F0823809F017C108C0F6
:101BA00090916B0280916C02882399F0926011C031
:101BB000809172028F708093E9008091EB0090E039
:101BC00025E0969587952A95E1F7982F91701092C8
:101BD000E9008091E800877F8093E8009093F1000E
:101BE0001092F100D0C0882319F0823009F0EEC0C5
:101BF00090E08F719070009721F0029709F0E6C095
:101C00000CC080917002813009F0E0C010926C022B
:101C1000333069F580936C022AC08091700288236A
:101C200031F5209172022F7009F4D0C02093E900A1
:101C30008091EB0080FF1BC0333021F48091EB00DA
:101C4000806213C08091EB0080618093EB0081E0A3
:101C500090E002C0880F991F2A95E2F78093EA006E
:101C60001092EA008091EB0088608093EB00109264
:101C7000E9008091E800877F89C0882309F0A6C029
:101C8000109170021F778091E3008078812B809300
:101C9000E3008091E800877F8093E80093DD8091E6
:101CA000E80080FFFCCF8091E30080688093E30030
:101CB000112311F482E001C083E08EBB87C08058FD
:101CC000823008F083C0809170029091710223E00D
:101CD0008C3D920709F033C083E08C838AE28B83CA
:101CE0007FB7F894DE0115966EE040E050E011E217
:101CF000E62FF0E010935700849140FF03C08295D7
:101D00008F706F5F8F70282F30E08A3018F0C90114
:101D1000C79602C0C901C0968D939D934F5F5F4FD8
:101D20004431510529F77FBF8091E800877F809378
:101D3000E800CE0103966AE270E0FFDB13C0609119
:101D40007202AE014F5F5F4F0E943601BC010097E7
:101D500009F43CC08091E800877F8093E800898186
:101D60009A8153DC8091E8008B778093E8002EC045
:101D7000803861F58091E800877F8093E80080914A
:101D80006A028093F1008091E8008E778093E800EA
:101D900019DD1CC08823D1F4909170029230B0F408
:101DA0008091E800877F8093E80090936A020ADDC3
:101DB00080916A02882331F48091E30087FD02C09C
:101DC00081E001C084E08EBB0E9473018091E80035
:101DD00083FF0AC08091E800877F8093E8008091AC
:101DE000EB0080628093EB00AC960FB6F894DEBFF8
:101DF0000FBECDBFCF91DF911F91089508951F931E
:101E00008EB3882371F01091E9008091EC0010925C
:101E1000E9008091E80083FF01C087DE1F70109306
:101E2000E9001F910895FC018EB3843099F58489EF
:101E30009589A689B7890097A105B10559F18681D1
:101E40008F708093E9008091E80082FF23C0409169
:101E5000F3002091F200942F80E030E0822B932B4E
:101E6000892B19F46FEF7FEF04C08091F100682F88
:101E700070E04091F3002091F200942F80E030E078
:101E8000822B932B892B41F48091E8008B778093F0
:101E9000E80002C06FEF7FEFCB0108950895FC01C9
:101EA0008EB3843051F584899589A689B7890097C6
:101EB000A105B10511F181818F708093E9004091F6
:101EC000F3002091F200942F80E030E0822B932BDE
:101ED000892BA9F09091E8008091E8008E7780939B
:101EE000E80095FD0CC08DDC982F882349F4809183
:101EF000E8008E778093E80003C092E001C090E094
:101F0000892F0895FC018EB3843091F484899589DA
:101F1000A689B7890097A105B10551F081818F701D
:101F20008093E9008091E80080FF02C0CF01B7CF25
:101F300008951F93FC01162F8EB38430E1F4848939
:101F40009589A689B7890097A105B105A1F081817E
:101F50008F708093E9008091E80085FD08C0809132
:101F6000E8008E778093E8004CDC882329F41093F6
:101F7000F10080E001C082E01F910895CF93DF93CC
:101F8000EC014096FC018BE0DF011D928A95E9F798
:101F900082E08C83898783E08E87CE01019661E0A1
:101FA000D5DB882371F0CE01069661E0CFDB882374
:101FB00041F0CE010B9661E0C9DB882319F081E086
:101FC00001C080E0DF91CF910895CF93DF93EC01C2
:101FD0008091E80083FFA3C0888190E02091720285
:101FE000309173022817390709F099C080916F0268
:101FF000813269F0823220F4803209F090C03CC016
:10200000823209F46BC0833209F089C07AC08091B2
:102010006E02813A09F083C08091E800877F809347
:10202000E8008091E80080FFFCCF8C899D89AE8913
:10203000BF898093F100292F3A2F4B2F55272093EA
:10204000F1009D01442755272093F1008B2F9927FC
:10205000AA27BB278093F100888D8093F100898D9A
:102060008093F1008A8D8093F1008091E8008E7753
:102070008093E800A7DB53C080916E02813209F0A3
:102080004EC08091E800877F8093E80004C08EB343
:10209000882309F444C08091E80082FFF8CF809142
:1020A000F1009091F1002091F1003091F1008C8BC2
:1020B0009D8B2E8B3F8B8091F100888F8091F1005A
:1020C000898F8091F1008A8F8091E8008B778093CF
:1020D000E80078DBCE010E946E0121C080916E0283
:1020E0008132E9F48091E800877F8093E8006ADB21
:1020F0008091700290917102998B888BCE01CEDE17
:102100000EC080916E02813251F48091E800877F89
:102110008093E80057DBCE0160917002BFDEDF9153
:10212000CF910895AA1BBB1B51E107C0AA1FBB1F7B
:10213000A617B70710F0A61BB70B881F991F5A9553
:10214000A9F780959095BC01CD010895A1E21A2EC2
:10215000AA1BBB1BFD010DC0AA1FBB1FEE1FFF1F4B
:10216000A217B307E407F50720F0A21BB30BE40B9B
:10217000F50B661F771F881F991F1A9469F76095E2
:102180007095809590959B01AC01BD01CF0108959C
:1021900097FB092E05260ED057FD04D0D7DF0AD0B5
:1021A000001C38F450954095309521953F4F4F4F86
:1021B0005F4F0895F6F790958095709561957F4FE4
:1021C0008F4F9F4F0895FC0188279927E89421910C
:1021D0002032E9F3293010F02E30C8F32B3239F0D9
:1021E0002D3231F4689403C06FD0820F911D21917C
:1021F00020532A30C8F31EF4909581959F4F08957F
:10220000FB01DC018D9181341CF08B350CF4805E78
:10221000659161341CF06B350CF4605E861B6111B6
:1022200089F3990B0895FC0105900020E9F780954A
:1022300090958E0F9F1F0895FB01DC014150504087
:1022400048F005900D920020C9F701C01D92415041
:102250005040E0F7089548E652E00FC0FB01DC0172
:102260004150504048F001900D920020C9F701C044
:102270001D9241505040E0F70895FA01A191B081BC
:10228000009719F41097E1F0CD01DC01CD010D901C
:10229000002011F4C00113C0FB012191222319F089
:1022A0002015D9F7F3CFFB012191201519F41E92C7
:1022B000119606C02223C1F70D900020A1F7D0018E
:1022C000FA01A193B08308957AE0979F902D879F9C
:0C22D000802D910D11240895F894FFCF8B
:1022DC0000000000000020004A0100000000000087
:1022EC0096006A01008310000001041000000182B6
:1022FC000800000100000000000000000000001BAE
:10230C005B4B000D0A000D007374617475732E2EF7
:0A231C002E0028000102200A0D0027
:00000001FF
